{
  "contractName": "DutchAuction",
  "abi": [
    {
      "inputs": [
        {
          "internalType": "uint256",
          "name": "_startingPrice",
          "type": "uint256"
        },
        {
          "internalType": "uint256",
          "name": "_discountRate",
          "type": "uint256"
        },
        {
          "internalType": "address",
          "name": "_nft",
          "type": "address"
        },
        {
          "internalType": "uint256",
          "name": "_nftId",
          "type": "uint256"
        }
      ],
      "stateMutability": "nonpayable",
      "type": "constructor"
    },
    {
      "inputs": [],
      "name": "discountRate",
      "outputs": [
        {
          "internalType": "uint256",
          "name": "",
          "type": "uint256"
        }
      ],
      "stateMutability": "view",
      "type": "function"
    },
    {
      "inputs": [],
      "name": "expiresAt",
      "outputs": [
        {
          "internalType": "uint256",
          "name": "",
          "type": "uint256"
        }
      ],
      "stateMutability": "view",
      "type": "function"
    },
    {
      "inputs": [],
      "name": "nft",
      "outputs": [
        {
          "internalType": "contract IERC721",
          "name": "",
          "type": "address"
        }
      ],
      "stateMutability": "view",
      "type": "function"
    },
    {
      "inputs": [],
      "name": "nftId",
      "outputs": [
        {
          "internalType": "uint256",
          "name": "",
          "type": "uint256"
        }
      ],
      "stateMutability": "view",
      "type": "function"
    },
    {
      "inputs": [],
      "name": "seller",
      "outputs": [
        {
          "internalType": "address payable",
          "name": "",
          "type": "address"
        }
      ],
      "stateMutability": "view",
      "type": "function"
    },
    {
      "inputs": [],
      "name": "startAt",
      "outputs": [
        {
          "internalType": "uint256",
          "name": "",
          "type": "uint256"
        }
      ],
      "stateMutability": "view",
      "type": "function"
    },
    {
      "inputs": [],
      "name": "startingPrice",
      "outputs": [
        {
          "internalType": "uint256",
          "name": "",
          "type": "uint256"
        }
      ],
      "stateMutability": "view",
      "type": "function"
    },
    {
      "inputs": [],
      "name": "getPrice",
      "outputs": [
        {
          "internalType": "uint256",
          "name": "",
          "type": "uint256"
        }
      ],
      "stateMutability": "view",
      "type": "function"
    },
    {
      "inputs": [
        {
          "internalType": "uint256",
          "name": "price",
          "type": "uint256"
        },
        {
          "internalType": "uint256",
          "name": "value",
          "type": "uint256"
        }
      ],
      "name": "buy",
      "outputs": [],
      "stateMutability": "payable",
      "type": "function"
    }
  ],
  "bytecode": "0x6101606040523480156200001257600080fd5b5060405162000d8738038062000d878339818101604052810190620000389190620001e0565b3373ffffffffffffffffffffffffffffffffffffffff1660c08173ffffffffffffffffffffffffffffffffffffffff16815250508360e0818152505042610100818152505062093a80426200008e919062000281565b610120818152505082610140818152505062093a8083620000b09190620002de565b841015620000f5576040517f08c379a0000000000000000000000000000000000000000000000000000000008152600401620000ec90620003a0565b60405180910390fd5b8173ffffffffffffffffffffffffffffffffffffffff1660808173ffffffffffffffffffffffffffffffffffffffff16815250508060a0818152505050505050620003c2565b600080fd5b6000819050919050565b620001558162000140565b81146200016157600080fd5b50565b60008151905062000175816200014a565b92915050565b600073ffffffffffffffffffffffffffffffffffffffff82169050919050565b6000620001a8826200017b565b9050919050565b620001ba816200019b565b8114620001c657600080fd5b50565b600081519050620001da81620001af565b92915050565b60008060008060808587031215620001fd57620001fc6200013b565b5b60006200020d8782880162000164565b9450506020620002208782880162000164565b93505060406200023387828801620001c9565b9250506060620002468782880162000164565b91505092959194509250565b7f4e487b7100000000000000000000000000000000000000000000000000000000600052601160045260246000fd5b60006200028e8262000140565b91506200029b8362000140565b9250827fffffffffffffffffffffffffffffffffffffffffffffffffffffffffffffffff03821115620002d357620002d262000252565b5b828201905092915050565b6000620002eb8262000140565b9150620002f88362000140565b9250817fffffffffffffffffffffffffffffffffffffffffffffffffffffffffffffffff048311821515161562000334576200033362000252565b5b828202905092915050565b600082825260208201905092915050565b7f7374617274696e67207072696365203c206d696e000000000000000000000000600082015250565b6000620003886014836200033f565b9150620003958262000350565b602082019050919050565b60006020820190508181036000830152620003bb8162000379565b9050919050565b60805160a05160c05160e0516101005161012051610140516109396200044e600039600081816102a10152610547015260008181610249015261036d01526000818161027001526103250152600081816102cf0152610349015260008181610201015261044e0152600081816103010152610470015260008181610225015261041201526109396000f3fe6080604052600436106100865760003560e01c8063c6bc518211610059578063c6bc518214610137578063c744656514610162578063d6fbf2021461018d578063d6febde8146101b8578063e6c0e6d5146101d457610086565b806308551a531461008b57806347ccca02146100b65780638622a689146100e157806398d5fdca1461010c575b600080fd5b34801561009757600080fd5b506100a06101ff565b6040516100ad91906105aa565b60405180910390f35b3480156100c257600080fd5b506100cb610223565b6040516100d89190610624565b60405180910390f35b3480156100ed57600080fd5b506100f6610247565b6040516101039190610658565b60405180910390f35b34801561011857600080fd5b5061012161026b565b60405161012e9190610658565b60405180910390f35b34801561014357600080fd5b5061014c6102ff565b6040516101599190610658565b60405180910390f35b34801561016e57600080fd5b50610177610323565b6040516101849190610658565b60405180910390f35b34801561019957600080fd5b506101a2610347565b6040516101af9190610658565b60405180910390f35b6101d260048036038101906101cd91906106a4565b61036b565b005b3480156101e057600080fd5b506101e9610545565b6040516101f69190610658565b60405180910390f35b7f000000000000000000000000000000000000000000000000000000000000000081565b7f000000000000000000000000000000000000000000000000000000000000000081565b7f000000000000000000000000000000000000000000000000000000000000000081565b6000807f00000000000000000000000000000000000000000000000000000000000000004261029a9190610713565b90506000817f00000000000000000000000000000000000000000000000000000000000000006102ca9190610747565b9050807f00000000000000000000000000000000000000000000000000000000000000006102f89190610713565b9250505090565b7f000000000000000000000000000000000000000000000000000000000000000081565b7f000000000000000000000000000000000000000000000000000000000000000081565b7f000000000000000000000000000000000000000000000000000000000000000081565b7f000000000000000000000000000000000000000000000000000000000000000042106103cd576040517f08c379a00000000000000000000000000000000000000000000000000000000081526004016103c4906107fe565b60405180910390fd5b81811015610410576040517f08c379a00000000000000000000000000000000000000000000000000000000081526004016104079061086a565b60405180910390fd5b7f000000000000000000000000000000000000000000000000000000000000000073ffffffffffffffffffffffffffffffffffffffff166323b872dd7f0000000000000000000000000000000000000000000000000000000000000000337f00000000000000000000000000000000000000000000000000000000000000006040518463ffffffff1660e01b81526004016104ad939291906108cc565b600060405180830381600087803b1580156104c757600080fd5b505af11580156104db573d6000803e3d6000fd5b50505050600082826104ed9190610713565b90506000811115610540573373ffffffffffffffffffffffffffffffffffffffff166108fc829081150290604051600060405180830381858888f1935050505015801561053e573d6000803e3d6000fd5b505b505050565b7f000000000000000000000000000000000000000000000000000000000000000081565b600073ffffffffffffffffffffffffffffffffffffffff82169050919050565b600061059482610569565b9050919050565b6105a481610589565b82525050565b60006020820190506105bf600083018461059b565b92915050565b6000819050919050565b60006105ea6105e56105e084610569565b6105c5565b610569565b9050919050565b60006105fc826105cf565b9050919050565b600061060e826105f1565b9050919050565b61061e81610603565b82525050565b60006020820190506106396000830184610615565b92915050565b6000819050919050565b6106528161063f565b82525050565b600060208201905061066d6000830184610649565b92915050565b600080fd5b6106818161063f565b811461068c57600080fd5b50565b60008135905061069e81610678565b92915050565b600080604083850312156106bb576106ba610673565b5b60006106c98582860161068f565b92505060206106da8582860161068f565b9150509250929050565b7f4e487b7100000000000000000000000000000000000000000000000000000000600052601160045260246000fd5b600061071e8261063f565b91506107298361063f565b92508282101561073c5761073b6106e4565b5b828203905092915050565b60006107528261063f565b915061075d8361063f565b9250817fffffffffffffffffffffffffffffffffffffffffffffffffffffffffffffffff0483118215151615610796576107956106e4565b5b828202905092915050565b600082825260208201905092915050565b7f61756374696f6e20657870697265640000000000000000000000000000000000600082015250565b60006107e8600f836107a1565b91506107f3826107b2565b602082019050919050565b60006020820190508181036000830152610817816107db565b9050919050565b7f455448203c207072696365000000000000000000000000000000000000000000600082015250565b6000610854600b836107a1565b915061085f8261081e565b602082019050919050565b6000602082019050818103600083015261088381610847565b9050919050565b6000610895826105f1565b9050919050565b6108a58161088a565b82525050565b60006108b682610569565b9050919050565b6108c6816108ab565b82525050565b60006060820190506108e1600083018661089c565b6108ee60208301856108bd565b6108fb6040830184610649565b94935050505056fea2646970667358221220d9d6a024448f79358b74da4636e09056ac3c6dc854424f70a1c5af3c36d9a88c64736f6c634300080c0033",
  "immutableReferences": {
    "17": [
      {
        "length": 32,
        "start": 549
      },
      {
        "length": 32,
        "start": 1042
      }
    ],
    "19": [
      {
        "length": 32,
        "start": 769
      },
      {
        "length": 32,
        "start": 1136
      }
    ],
    "21": [
      {
        "length": 32,
        "start": 513
      },
      {
        "length": 32,
        "start": 1102
      }
    ],
    "23": [
      {
        "length": 32,
        "start": 719
      },
      {
        "length": 32,
        "start": 841
      }
    ],
    "25": [
      {
        "length": 32,
        "start": 624
      },
      {
        "length": 32,
        "start": 805
      }
    ],
    "27": [
      {
        "length": 32,
        "start": 585
      },
      {
        "length": 32,
        "start": 877
      }
    ],
    "29": [
      {
        "length": 32,
        "start": 673
      },
      {
        "length": 32,
        "start": 1351
      }
    ]
  },
  "source": "// SPDX-License-Identifier: MIT\r\npragma solidity ^0.8.10;\r\n\r\ninterface IERC721 {\r\n    function transferFrom(\r\n        address _from,\r\n        address _to,\r\n        uint _nftId\r\n    ) external;\r\n}\r\n\r\ncontract DutchAuction {\r\n    uint private constant DURATION = 7 days;\r\n\r\n    IERC721 public immutable nft;\r\n    uint public immutable nftId;\r\n\r\n    address payable public immutable seller;\r\n    uint public immutable startingPrice;\r\n    uint public immutable startAt;\r\n    uint public immutable expiresAt;\r\n    uint public immutable discountRate;\r\n\r\n    constructor(\r\n        uint _startingPrice,\r\n        uint _discountRate,\r\n        address _nft,\r\n        uint _nftId\r\n    ) {\r\n        seller = payable(msg.sender);\r\n        startingPrice = _startingPrice;\r\n        startAt = block.timestamp;\r\n        expiresAt = block.timestamp + DURATION;\r\n        discountRate = _discountRate;\r\n\r\n        require(_startingPrice >= _discountRate * DURATION, \"starting price < min\");\r\n\r\n        nft = IERC721(_nft);\r\n        nftId = _nftId;\r\n    }\r\n\r\n    function getPrice() public view returns (uint) {\r\n        uint timeElapsed = block.timestamp - startAt;\r\n        uint discount = discountRate * timeElapsed;\r\n        return startingPrice - discount;\r\n    }\r\n\r\n    function buy(uint price, uint value) external payable {\r\n        require(block.timestamp < expiresAt, \"auction expired\");\r\n\r\n     \r\n        require(value >= price, \"ETH < price\");\r\n\r\n        nft.transferFrom(seller, msg.sender, nftId);\r\n        uint refund = value - price;\r\n        if (refund > 0) {\r\n            payable(msg.sender).transfer(refund);\r\n        }\r\n       \r\n    }\r\n}\r\n",
  "sourcePath": "C:\\Users\\Dell\\Desktop\\DutchAuction\\contracts\\DutchAuction.sol",
  "compiler": {
    "name": "solc",
    "version": "0.8.12+commit.f00d7308.Emscripten.clang"
  },
  "schemaVersion": "3.4.6",
  "updatedAt": "2022-03-24T11:50:03.496Z",
  "devdoc": {
    "kind": "dev",
    "methods": {},
    "version": 1
  },
  "userdoc": {
    "kind": "user",
    "methods": {},
    "version": 1
  }
}