{
  "contractName": "DutchAuction",
  "abi": [
    {
      "inputs": [
        {
          "internalType": "uint256",
          "name": "_startingPrice",
          "type": "uint256"
        },
        {
          "internalType": "uint256",
          "name": "_discountRate",
          "type": "uint256"
        },
        {
          "internalType": "address",
          "name": "_nft",
          "type": "address"
        },
        {
          "internalType": "uint256",
          "name": "_nftId",
          "type": "uint256"
        }
      ],
      "stateMutability": "nonpayable",
      "type": "constructor"
    },
    {
      "inputs": [],
      "name": "discountRate",
      "outputs": [
        {
          "internalType": "uint256",
          "name": "",
          "type": "uint256"
        }
      ],
      "stateMutability": "view",
      "type": "function",
      "constant": true
    },
    {
      "inputs": [],
      "name": "expiresAt",
      "outputs": [
        {
          "internalType": "uint256",
          "name": "",
          "type": "uint256"
        }
      ],
      "stateMutability": "view",
      "type": "function",
      "constant": true
    },
    {
      "inputs": [],
      "name": "nft",
      "outputs": [
        {
          "internalType": "contract IERC721",
          "name": "",
          "type": "address"
        }
      ],
      "stateMutability": "view",
      "type": "function",
      "constant": true
    },
    {
      "inputs": [],
      "name": "nftId",
      "outputs": [
        {
          "internalType": "uint256",
          "name": "",
          "type": "uint256"
        }
      ],
      "stateMutability": "view",
      "type": "function",
      "constant": true
    },
    {
      "inputs": [],
      "name": "seller",
      "outputs": [
        {
          "internalType": "address payable",
          "name": "",
          "type": "address"
        }
      ],
      "stateMutability": "view",
      "type": "function",
      "constant": true
    },
    {
      "inputs": [],
      "name": "startAt",
      "outputs": [
        {
          "internalType": "uint256",
          "name": "",
          "type": "uint256"
        }
      ],
      "stateMutability": "view",
      "type": "function",
      "constant": true
    },
    {
      "inputs": [],
      "name": "startingPrice",
      "outputs": [
        {
          "internalType": "uint256",
          "name": "",
          "type": "uint256"
        }
      ],
      "stateMutability": "view",
      "type": "function",
      "constant": true
    },
    {
      "inputs": [],
      "name": "getPrice",
      "outputs": [
        {
          "internalType": "uint256",
          "name": "",
          "type": "uint256"
        }
      ],
      "stateMutability": "view",
      "type": "function",
      "constant": true
    },
    {
      "inputs": [
        {
          "internalType": "uint256",
          "name": "price",
          "type": "uint256"
        },
        {
          "internalType": "address",
          "name": "address_account",
          "type": "address"
        },
        {
          "internalType": "uint256",
          "name": "balance",
          "type": "uint256"
        }
      ],
      "name": "buy",
      "outputs": [],
      "stateMutability": "payable",
      "type": "function",
      "payable": true
    }
  ],
  "bytecode": "0x6101606040523480156200001257600080fd5b5060405162000d6538038062000d658339818101604052810190620000389190620001e0565b3373ffffffffffffffffffffffffffffffffffffffff1660c08173ffffffffffffffffffffffffffffffffffffffff16815250508360e0818152505042610100818152505062093a80426200008e919062000281565b610120818152505082610140818152505062093a8083620000b09190620002de565b841015620000f5576040517f08c379a0000000000000000000000000000000000000000000000000000000008152600401620000ec90620003a0565b60405180910390fd5b8173ffffffffffffffffffffffffffffffffffffffff1660808173ffffffffffffffffffffffffffffffffffffffff16815250508060a0818152505050505050620003c2565b600080fd5b6000819050919050565b620001558162000140565b81146200016157600080fd5b50565b60008151905062000175816200014a565b92915050565b600073ffffffffffffffffffffffffffffffffffffffff82169050919050565b6000620001a8826200017b565b9050919050565b620001ba816200019b565b8114620001c657600080fd5b50565b600081519050620001da81620001af565b92915050565b60008060008060808587031215620001fd57620001fc6200013b565b5b60006200020d8782880162000164565b9450506020620002208782880162000164565b93505060406200023387828801620001c9565b9250506060620002468782880162000164565b91505092959194509250565b7f4e487b7100000000000000000000000000000000000000000000000000000000600052601160045260246000fd5b60006200028e8262000140565b91506200029b8362000140565b9250827fffffffffffffffffffffffffffffffffffffffffffffffffffffffffffffffff03821115620002d357620002d262000252565b5b828201905092915050565b6000620002eb8262000140565b9150620002f88362000140565b9250817fffffffffffffffffffffffffffffffffffffffffffffffffffffffffffffffff048311821515161562000334576200033362000252565b5b828202905092915050565b600082825260208201905092915050565b7f7374617274696e67207072696365203c206d696e000000000000000000000000600082015250565b6000620003886014836200033f565b9150620003958262000350565b602082019050919050565b60006020820190508181036000830152620003bb8162000379565b9050919050565b60805160a05160c05160e0516101005161012051610140516109176200044e6000396000818161041a01526104e601526000818161022501526103c20152600081816103e9015261049e01526000818161044801526104c20152600081816102010152610306015260008181610328015261047a0152600081816102ca015261039e01526109176000f3fe6080604052600436106100865760003560e01c806398d5fdca1161005957806398d5fdca14610128578063c6bc518214610153578063c74465651461017e578063d6fbf202146101a9578063e6c0e6d5146101d457610086565b806308551a531461008b5780632afaca20146100b657806347ccca02146100d25780638622a689146100fd575b600080fd5b34801561009757600080fd5b506100a06101ff565b6040516100ad9190610549565b60405180910390f35b6100d060048036038101906100cb91906105dd565b610223565b005b3480156100de57600080fd5b506100e761039c565b6040516100f4919061068f565b60405180910390f35b34801561010957600080fd5b506101126103c0565b60405161011f91906106b9565b60405180910390f35b34801561013457600080fd5b5061013d6103e4565b60405161014a91906106b9565b60405180910390f35b34801561015f57600080fd5b50610168610478565b60405161017591906106b9565b60405180910390f35b34801561018a57600080fd5b5061019361049c565b6040516101a091906106b9565b60405180910390f35b3480156101b557600080fd5b506101be6104c0565b6040516101cb91906106b9565b60405180910390f35b3480156101e057600080fd5b506101e96104e4565b6040516101f691906106b9565b60405180910390f35b7f000000000000000000000000000000000000000000000000000000000000000081565b7f00000000000000000000000000000000000000000000000000000000000000004210610285576040517f08c379a000000000000000000000000000000000000000000000000000000000815260040161027c90610731565b60405180910390fd5b828110156102c8576040517f08c379a00000000000000000000000000000000000000000000000000000000081526004016102bf9061079d565b60405180910390fd5b7f000000000000000000000000000000000000000000000000000000000000000073ffffffffffffffffffffffffffffffffffffffff166323b872dd7f0000000000000000000000000000000000000000000000000000000000000000847f00000000000000000000000000000000000000000000000000000000000000006040518463ffffffff1660e01b8152600401610365939291906107ed565b600060405180830381600087803b15801561037f57600080fd5b505af1158015610393573d6000803e3d6000fd5b50505050505050565b7f000000000000000000000000000000000000000000000000000000000000000081565b7f000000000000000000000000000000000000000000000000000000000000000081565b6000807f0000000000000000000000000000000000000000000000000000000000000000426104139190610853565b90506000817f00000000000000000000000000000000000000000000000000000000000000006104439190610887565b9050807f00000000000000000000000000000000000000000000000000000000000000006104719190610853565b9250505090565b7f000000000000000000000000000000000000000000000000000000000000000081565b7f000000000000000000000000000000000000000000000000000000000000000081565b7f000000000000000000000000000000000000000000000000000000000000000081565b7f000000000000000000000000000000000000000000000000000000000000000081565b600073ffffffffffffffffffffffffffffffffffffffff82169050919050565b600061053382610508565b9050919050565b61054381610528565b82525050565b600060208201905061055e600083018461053a565b92915050565b600080fd5b6000819050919050565b61057c81610569565b811461058757600080fd5b50565b60008135905061059981610573565b92915050565b60006105aa82610508565b9050919050565b6105ba8161059f565b81146105c557600080fd5b50565b6000813590506105d7816105b1565b92915050565b6000806000606084860312156105f6576105f5610564565b5b60006106048682870161058a565b9350506020610615868287016105c8565b92505060406106268682870161058a565b9150509250925092565b6000819050919050565b600061065561065061064b84610508565b610630565b610508565b9050919050565b60006106678261063a565b9050919050565b60006106798261065c565b9050919050565b6106898161066e565b82525050565b60006020820190506106a46000830184610680565b92915050565b6106b381610569565b82525050565b60006020820190506106ce60008301846106aa565b92915050565b600082825260208201905092915050565b7f61756374696f6e20657870697265640000000000000000000000000000000000600082015250565b600061071b600f836106d4565b9150610726826106e5565b602082019050919050565b6000602082019050818103600083015261074a8161070e565b9050919050565b7f455448203c207072696365000000000000000000000000000000000000000000600082015250565b6000610787600b836106d4565b915061079282610751565b602082019050919050565b600060208201905081810360008301526107b68161077a565b9050919050565b60006107c88261065c565b9050919050565b6107d8816107bd565b82525050565b6107e78161059f565b82525050565b600060608201905061080260008301866107cf565b61080f60208301856107de565b61081c60408301846106aa565b949350505050565b7f4e487b7100000000000000000000000000000000000000000000000000000000600052601160045260246000fd5b600061085e82610569565b915061086983610569565b92508282101561087c5761087b610824565b5b828203905092915050565b600061089282610569565b915061089d83610569565b9250817fffffffffffffffffffffffffffffffffffffffffffffffffffffffffffffffff04831182151516156108d6576108d5610824565b5b82820290509291505056fea2646970667358221220c5c057eaba6a00c544b956066f8265b8640b612629ae4520fa42979a3be4040264736f6c634300080c0033",
  "immutableReferences": {
    "17": [
      {
        "length": 32,
        "start": 714
      },
      {
        "length": 32,
        "start": 926
      }
    ],
    "19": [
      {
        "length": 32,
        "start": 808
      },
      {
        "length": 32,
        "start": 1146
      }
    ],
    "21": [
      {
        "length": 32,
        "start": 513
      },
      {
        "length": 32,
        "start": 774
      }
    ],
    "23": [
      {
        "length": 32,
        "start": 1096
      },
      {
        "length": 32,
        "start": 1218
      }
    ],
    "25": [
      {
        "length": 32,
        "start": 1001
      },
      {
        "length": 32,
        "start": 1182
      }
    ],
    "27": [
      {
        "length": 32,
        "start": 549
      },
      {
        "length": 32,
        "start": 962
      }
    ],
    "29": [
      {
        "length": 32,
        "start": 1050
      },
      {
        "length": 32,
        "start": 1254
      }
    ]
  },
  "source": "// SPDX-License-Identifier: MIT\r\npragma solidity ^0.8.10;\r\n\r\ninterface IERC721 {\r\n    function transferFrom(\r\n        address _from,\r\n        address _to,\r\n        uint _nftId\r\n    ) external;\r\n}\r\n\r\ncontract DutchAuction {\r\n    uint private constant DURATION = 7 days;\r\n    \r\n    IERC721 public immutable nft;\r\n    uint public immutable nftId;\r\n\r\n    address payable public immutable seller;\r\n    uint public immutable startingPrice;\r\n    uint public immutable startAt;\r\n    uint public immutable expiresAt;\r\n    uint public immutable discountRate;\r\n    \r\n\r\n    constructor(\r\n        uint _startingPrice,\r\n        uint _discountRate,\r\n        address _nft,\r\n        uint _nftId\r\n    ) {\r\n        seller = payable(msg.sender);\r\n        startingPrice = _startingPrice;\r\n        startAt = block.timestamp;\r\n        expiresAt = block.timestamp + DURATION;\r\n        discountRate = _discountRate;\r\n\r\n        require(_startingPrice >= _discountRate * DURATION, \"starting price < min\");\r\n\r\n        nft = IERC721(_nft);\r\n        nftId = _nftId;\r\n    }\r\n\r\n    function getPrice() public view returns (uint) {\r\n        uint timeElapsed = block.timestamp - startAt;\r\n        uint discount = discountRate * timeElapsed;\r\n        return startingPrice - discount;\r\n    }\r\n\r\n    function buy(uint price,address address_account,uint balance) external payable  {\r\n   \r\n    \r\n        require(block.timestamp < expiresAt, \"auction expired\");\r\n\r\n        require(balance >= price, \"ETH < price\");\r\n\r\n        nft.transferFrom(seller, address_account, nftId);\r\n        \r\n        \r\n\r\n    }\r\n}",
  "sourcePath": "C:\\Users\\Dell\\Desktop\\DutchAuction\\contracts\\DutchAuction.sol",
  "compiler": {
    "name": "solc",
    "version": "0.8.12+commit.f00d7308.Emscripten.clang"
  },
  "schemaVersion": "3.4.6",
  "updatedAt": "2022-03-29T12:35:14.290Z",
  "networkType": "ethereum",
  "devdoc": {
    "kind": "dev",
    "methods": {},
    "version": 1
  },
  "userdoc": {
    "kind": "user",
    "methods": {},
    "version": 1
  }
}