{
  "contractName": "ERC721",
  "abi": [
    {
      "anonymous": false,
      "inputs": [
        {
          "indexed": true,
          "internalType": "address",
          "name": "owner",
          "type": "address"
        },
        {
          "indexed": true,
          "internalType": "address",
          "name": "approved",
          "type": "address"
        },
        {
          "indexed": true,
          "internalType": "uint256",
          "name": "tokenId",
          "type": "uint256"
        }
      ],
      "name": "Approval",
      "type": "event"
    },
    {
      "anonymous": false,
      "inputs": [
        {
          "indexed": true,
          "internalType": "address",
          "name": "owner",
          "type": "address"
        },
        {
          "indexed": true,
          "internalType": "address",
          "name": "operator",
          "type": "address"
        },
        {
          "indexed": false,
          "internalType": "bool",
          "name": "approved",
          "type": "bool"
        }
      ],
      "name": "ApprovalForAll",
      "type": "event"
    },
    {
      "anonymous": false,
      "inputs": [
        {
          "indexed": true,
          "internalType": "address",
          "name": "from",
          "type": "address"
        },
        {
          "indexed": true,
          "internalType": "address",
          "name": "to",
          "type": "address"
        },
        {
          "indexed": true,
          "internalType": "uint256",
          "name": "tokenId",
          "type": "uint256"
        }
      ],
      "name": "Transfer",
      "type": "event"
    },
    {
      "inputs": [
        {
          "internalType": "bytes4",
          "name": "interfaceId",
          "type": "bytes4"
        }
      ],
      "name": "supportsInterface",
      "outputs": [
        {
          "internalType": "bool",
          "name": "",
          "type": "bool"
        }
      ],
      "stateMutability": "pure",
      "type": "function"
    },
    {
      "inputs": [
        {
          "internalType": "address",
          "name": "owner",
          "type": "address"
        }
      ],
      "name": "balanceOf",
      "outputs": [
        {
          "internalType": "uint256",
          "name": "",
          "type": "uint256"
        }
      ],
      "stateMutability": "view",
      "type": "function"
    },
    {
      "inputs": [
        {
          "internalType": "uint256",
          "name": "tokenId",
          "type": "uint256"
        }
      ],
      "name": "ownerOf",
      "outputs": [
        {
          "internalType": "address",
          "name": "owner",
          "type": "address"
        }
      ],
      "stateMutability": "view",
      "type": "function"
    },
    {
      "inputs": [
        {
          "internalType": "address",
          "name": "owner",
          "type": "address"
        },
        {
          "internalType": "address",
          "name": "operator",
          "type": "address"
        }
      ],
      "name": "isApprovedForAll",
      "outputs": [
        {
          "internalType": "bool",
          "name": "",
          "type": "bool"
        }
      ],
      "stateMutability": "view",
      "type": "function"
    },
    {
      "inputs": [
        {
          "internalType": "address",
          "name": "operator",
          "type": "address"
        },
        {
          "internalType": "bool",
          "name": "approved",
          "type": "bool"
        }
      ],
      "name": "setApprovalForAll",
      "outputs": [],
      "stateMutability": "nonpayable",
      "type": "function"
    },
    {
      "inputs": [
        {
          "internalType": "uint256",
          "name": "tokenId",
          "type": "uint256"
        }
      ],
      "name": "getApproved",
      "outputs": [
        {
          "internalType": "address",
          "name": "",
          "type": "address"
        }
      ],
      "stateMutability": "view",
      "type": "function"
    },
    {
      "inputs": [
        {
          "internalType": "address",
          "name": "to",
          "type": "address"
        },
        {
          "internalType": "uint256",
          "name": "tokenId",
          "type": "uint256"
        }
      ],
      "name": "approve",
      "outputs": [],
      "stateMutability": "nonpayable",
      "type": "function"
    },
    {
      "inputs": [
        {
          "internalType": "address",
          "name": "from",
          "type": "address"
        },
        {
          "internalType": "address",
          "name": "to",
          "type": "address"
        },
        {
          "internalType": "uint256",
          "name": "tokenId",
          "type": "uint256"
        }
      ],
      "name": "transferFrom",
      "outputs": [],
      "stateMutability": "nonpayable",
      "type": "function"
    },
    {
      "inputs": [
        {
          "internalType": "address",
          "name": "from",
          "type": "address"
        },
        {
          "internalType": "address",
          "name": "to",
          "type": "address"
        },
        {
          "internalType": "uint256",
          "name": "tokenId",
          "type": "uint256"
        }
      ],
      "name": "safeTransferFrom",
      "outputs": [],
      "stateMutability": "nonpayable",
      "type": "function"
    },
    {
      "inputs": [
        {
          "internalType": "address",
          "name": "from",
          "type": "address"
        },
        {
          "internalType": "address",
          "name": "to",
          "type": "address"
        },
        {
          "internalType": "uint256",
          "name": "tokenId",
          "type": "uint256"
        },
        {
          "internalType": "bytes",
          "name": "_data",
          "type": "bytes"
        }
      ],
      "name": "safeTransferFrom",
      "outputs": [],
      "stateMutability": "nonpayable",
      "type": "function"
    },
    {
      "inputs": [
        {
          "internalType": "address",
          "name": "to",
          "type": "address"
        },
        {
          "internalType": "uint256",
          "name": "tokenId",
          "type": "uint256"
        }
      ],
      "name": "mint",
      "outputs": [],
      "stateMutability": "nonpayable",
      "type": "function"
    },
    {
      "inputs": [
        {
          "internalType": "uint256",
          "name": "tokenId",
          "type": "uint256"
        }
      ],
      "name": "burn",
      "outputs": [],
      "stateMutability": "nonpayable",
      "type": "function"
    }
  ],
  "bytecode": "0x608060405234801561001057600080fd5b50611d05806100206000396000f3fe608060405234801561001057600080fd5b50600436106100b45760003560e01c806342966c681161007157806342966c68146101895780636352211e146101a557806370a08231146101d5578063a22cb46514610205578063b88d4fde14610221578063e985e9c51461023d576100b4565b806301ffc9a7146100b9578063081812fc146100e9578063095ea7b31461011957806323b872dd1461013557806340c10f191461015157806342842e0e1461016d575b600080fd5b6100d360048036038101906100ce9190611276565b61026d565b6040516100e091906112be565b60405180910390f35b61010360048036038101906100fe919061130f565b61033f565b604051610110919061137d565b60405180910390f35b610133600480360381019061012e91906113c4565b61041d565b005b61014f600480360381019061014a9190611404565b610563565b005b61016b600480360381019061016691906113c4565b6105cc565b005b61018760048036038101906101829190611404565b6107e4565b005b6101a3600480360381019061019e919061130f565b610804565b005b6101bf60048036038101906101ba919061130f565b610908565b6040516101cc919061137d565b60405180910390f35b6101ef60048036038101906101ea9190611457565b6109b4565b6040516101fc9190611493565b60405180910390f35b61021f600480360381019061021a91906114da565b610a6c565b005b61023b60048036038101906102369190611660565b610b69565b005b610257600480360381019061025291906116e3565b610bd4565b60405161026491906112be565b60405180910390f35b60007f80ac58cd000000000000000000000000000000000000000000000000000000007bffffffffffffffffffffffffffffffffffffffffffffffffffffffff1916827bffffffffffffffffffffffffffffffffffffffffffffffffffffffff1916148061033857507f01ffc9a7000000000000000000000000000000000000000000000000000000007bffffffffffffffffffffffffffffffffffffffffffffffffffffffff1916827bffffffffffffffffffffffffffffffffffffffffffffffffffffffff1916145b9050919050565b60008073ffffffffffffffffffffffffffffffffffffffff1660008084815260200190815260200160002060009054906101000a900473ffffffffffffffffffffffffffffffffffffffff1673ffffffffffffffffffffffffffffffffffffffff1614156103e2576040517f08c379a00000000000000000000000000000000000000000000000000000000081526004016103d990611780565b60405180910390fd5b6002600083815260200190815260200160002060009054906101000a900473ffffffffffffffffffffffffffffffffffffffff169050919050565b600080600083815260200190815260200160002060009054906101000a900473ffffffffffffffffffffffffffffffffffffffff1690508073ffffffffffffffffffffffffffffffffffffffff163373ffffffffffffffffffffffffffffffffffffffff1614806105145750600360008273ffffffffffffffffffffffffffffffffffffffff1673ffffffffffffffffffffffffffffffffffffffff16815260200190815260200160002060003373ffffffffffffffffffffffffffffffffffffffff1673ffffffffffffffffffffffffffffffffffffffff16815260200190815260200160002060009054906101000a900460ff165b610553576040517f08c379a000000000000000000000000000000000000000000000000000000000815260040161054a906117ec565b60405180910390fd5b61055e818484610c68565b505050565b600061056e82610908565b905061057b813384610d1a565b6105ba576040517f08c379a00000000000000000000000000000000000000000000000000000000081526004016105b190611858565b60405180910390fd5b6105c681858585610e4e565b50505050565b600073ffffffffffffffffffffffffffffffffffffffff168273ffffffffffffffffffffffffffffffffffffffff16141561063c576040517f08c379a0000000000000000000000000000000000000000000000000000000008152600401610633906118c4565b60405180910390fd5b600073ffffffffffffffffffffffffffffffffffffffff1660008083815260200190815260200160002060009054906101000a900473ffffffffffffffffffffffffffffffffffffffff1673ffffffffffffffffffffffffffffffffffffffff16146106dd576040517f08c379a00000000000000000000000000000000000000000000000000000000081526004016106d490611930565b60405180910390fd5b60018060008473ffffffffffffffffffffffffffffffffffffffff1673ffffffffffffffffffffffffffffffffffffffff168152602001908152602001600020600082825461072c919061197f565b925050819055508160008083815260200190815260200160002060006101000a81548173ffffffffffffffffffffffffffffffffffffffff021916908373ffffffffffffffffffffffffffffffffffffffff160217905550808273ffffffffffffffffffffffffffffffffffffffff16600073ffffffffffffffffffffffffffffffffffffffff167fddf252ad1be2c89b69c2b068fc378daa952ba7f163c4a11628f55a4df523b3ef60405160405180910390a45050565b6107ff83838360405180602001604052806000815250610b69565b505050565b600061080f82610908565b905061081d81600084610c68565b60018060008373ffffffffffffffffffffffffffffffffffffffff1673ffffffffffffffffffffffffffffffffffffffff168152602001908152602001600020600082825461086c91906119d5565b9250508190555060008083815260200190815260200160002060006101000a81549073ffffffffffffffffffffffffffffffffffffffff021916905581600073ffffffffffffffffffffffffffffffffffffffff168273ffffffffffffffffffffffffffffffffffffffff167fddf252ad1be2c89b69c2b068fc378daa952ba7f163c4a11628f55a4df523b3ef60405160405180910390a45050565b600080600083815260200190815260200160002060009054906101000a900473ffffffffffffffffffffffffffffffffffffffff169050600073ffffffffffffffffffffffffffffffffffffffff168173ffffffffffffffffffffffffffffffffffffffff1614156109af576040517f08c379a00000000000000000000000000000000000000000000000000000000081526004016109a690611780565b60405180910390fd5b919050565b60008073ffffffffffffffffffffffffffffffffffffffff168273ffffffffffffffffffffffffffffffffffffffff161415610a25576040517f08c379a0000000000000000000000000000000000000000000000000000000008152600401610a1c90611a55565b60405180910390fd5b600160008373ffffffffffffffffffffffffffffffffffffffff1673ffffffffffffffffffffffffffffffffffffffff168152602001908152602001600020549050919050565b80600360003373ffffffffffffffffffffffffffffffffffffffff1673ffffffffffffffffffffffffffffffffffffffff16815260200190815260200160002060008473ffffffffffffffffffffffffffffffffffffffff1673ffffffffffffffffffffffffffffffffffffffff16815260200190815260200160002060006101000a81548160ff0219169083151502179055508173ffffffffffffffffffffffffffffffffffffffff163373ffffffffffffffffffffffffffffffffffffffff167f17307eab39ab6107e8899845ad3d59bd9653f200f220920489ca2b5937696c3183604051610b5d91906112be565b60405180910390a35050565b6000610b7483610908565b9050610b81813385610d1a565b610bc0576040517f08c379a0000000000000000000000000000000000000000000000000000000008152600401610bb790611858565b60405180910390fd5b610bcd8186868686611096565b5050505050565b6000600360008473ffffffffffffffffffffffffffffffffffffffff1673ffffffffffffffffffffffffffffffffffffffff16815260200190815260200160002060008373ffffffffffffffffffffffffffffffffffffffff1673ffffffffffffffffffffffffffffffffffffffff16815260200190815260200160002060009054906101000a900460ff16905092915050565b816002600083815260200190815260200160002060006101000a81548173ffffffffffffffffffffffffffffffffffffffff021916908373ffffffffffffffffffffffffffffffffffffffff160217905550808273ffffffffffffffffffffffffffffffffffffffff168473ffffffffffffffffffffffffffffffffffffffff167f8c5be1e5ebec7d5bd14f71427d1e84f3dd0314c0f7b2291e5b200ac8c7c3b92560405160405180910390a4505050565b60008373ffffffffffffffffffffffffffffffffffffffff168373ffffffffffffffffffffffffffffffffffffffff161480610db457508273ffffffffffffffffffffffffffffffffffffffff166002600084815260200190815260200160002060009054906101000a900473ffffffffffffffffffffffffffffffffffffffff1673ffffffffffffffffffffffffffffffffffffffff16145b80610e455750600360008573ffffffffffffffffffffffffffffffffffffffff1673ffffffffffffffffffffffffffffffffffffffff16815260200190815260200160002060008473ffffffffffffffffffffffffffffffffffffffff1673ffffffffffffffffffffffffffffffffffffffff16815260200190815260200160002060009054906101000a900460ff165b90509392505050565b8373ffffffffffffffffffffffffffffffffffffffff168373ffffffffffffffffffffffffffffffffffffffff1614610ebc576040517f08c379a0000000000000000000000000000000000000000000000000000000008152600401610eb390611ac1565b60405180910390fd5b600073ffffffffffffffffffffffffffffffffffffffff168273ffffffffffffffffffffffffffffffffffffffff161415610f2c576040517f08c379a0000000000000000000000000000000000000000000000000000000008152600401610f2390611b2d565b60405180910390fd5b610f3884600083610c68565b60018060008573ffffffffffffffffffffffffffffffffffffffff1673ffffffffffffffffffffffffffffffffffffffff1681526020019081526020016000206000828254610f8791906119d5565b9250508190555060018060008473ffffffffffffffffffffffffffffffffffffffff1673ffffffffffffffffffffffffffffffffffffffff1681526020019081526020016000206000828254610fdd919061197f565b925050819055508160008083815260200190815260200160002060006101000a81548173ffffffffffffffffffffffffffffffffffffffff021916908373ffffffffffffffffffffffffffffffffffffffff160217905550808273ffffffffffffffffffffffffffffffffffffffff168473ffffffffffffffffffffffffffffffffffffffff167fddf252ad1be2c89b69c2b068fc378daa952ba7f163c4a11628f55a4df523b3ef60405160405180910390a450505050565b6110a285858585610e4e565b6110ae848484846110f4565b6110ed576040517f08c379a00000000000000000000000000000000000000000000000000000000081526004016110e490611b99565b60405180910390fd5b5050505050565b60006111158473ffffffffffffffffffffffffffffffffffffffff166111f7565b156111ea5763150b7a0260e01b7bffffffffffffffffffffffffffffffffffffffffffffffffffffffff19168473ffffffffffffffffffffffffffffffffffffffff1663150b7a02338887876040518563ffffffff1660e01b81526004016111809493929190611c41565b6020604051808303816000875af115801561119f573d6000803e3d6000fd5b505050506040513d601f19601f820116820180604052508101906111c39190611ca2565b7bffffffffffffffffffffffffffffffffffffffffffffffffffffffff19161490506111ef565b600190505b949350505050565b600080823b905060008111915050919050565b6000604051905090565b600080fd5b600080fd5b60007fffffffff0000000000000000000000000000000000000000000000000000000082169050919050565b6112538161121e565b811461125e57600080fd5b50565b6000813590506112708161124a565b92915050565b60006020828403121561128c5761128b611214565b5b600061129a84828501611261565b91505092915050565b60008115159050919050565b6112b8816112a3565b82525050565b60006020820190506112d360008301846112af565b92915050565b6000819050919050565b6112ec816112d9565b81146112f757600080fd5b50565b600081359050611309816112e3565b92915050565b60006020828403121561132557611324611214565b5b6000611333848285016112fa565b91505092915050565b600073ffffffffffffffffffffffffffffffffffffffff82169050919050565b60006113678261133c565b9050919050565b6113778161135c565b82525050565b6000602082019050611392600083018461136e565b92915050565b6113a18161135c565b81146113ac57600080fd5b50565b6000813590506113be81611398565b92915050565b600080604083850312156113db576113da611214565b5b60006113e9858286016113af565b92505060206113fa858286016112fa565b9150509250929050565b60008060006060848603121561141d5761141c611214565b5b600061142b868287016113af565b935050602061143c868287016113af565b925050604061144d868287016112fa565b9150509250925092565b60006020828403121561146d5761146c611214565b5b600061147b848285016113af565b91505092915050565b61148d816112d9565b82525050565b60006020820190506114a86000830184611484565b92915050565b6114b7816112a3565b81146114c257600080fd5b50565b6000813590506114d4816114ae565b92915050565b600080604083850312156114f1576114f0611214565b5b60006114ff858286016113af565b9250506020611510858286016114c5565b9150509250929050565b600080fd5b600080fd5b6000601f19601f8301169050919050565b7f4e487b7100000000000000000000000000000000000000000000000000000000600052604160045260246000fd5b61156d82611524565b810181811067ffffffffffffffff8211171561158c5761158b611535565b5b80604052505050565b600061159f61120a565b90506115ab8282611564565b919050565b600067ffffffffffffffff8211156115cb576115ca611535565b5b6115d482611524565b9050602081019050919050565b82818337600083830152505050565b60006116036115fe846115b0565b611595565b90508281526020810184848401111561161f5761161e61151f565b5b61162a8482856115e1565b509392505050565b600082601f8301126116475761164661151a565b5b81356116578482602086016115f0565b91505092915050565b6000806000806080858703121561167a57611679611214565b5b6000611688878288016113af565b9450506020611699878288016113af565b93505060406116aa878288016112fa565b925050606085013567ffffffffffffffff8111156116cb576116ca611219565b5b6116d787828801611632565b91505092959194509250565b600080604083850312156116fa576116f9611214565b5b6000611708858286016113af565b9250506020611719858286016113af565b9150509250929050565b600082825260208201905092915050565b7f746f6b656e20646f65736e277420657869737400000000000000000000000000600082015250565b600061176a601383611723565b915061177582611734565b602082019050919050565b600060208201905081810360008301526117998161175d565b9050919050565b7f6e6f74206f776e6572206e6f7220617070726f76656420666f7220616c6c0000600082015250565b60006117d6601e83611723565b91506117e1826117a0565b602082019050919050565b60006020820190508181036000830152611805816117c9565b9050919050565b7f6e6f74206f776e6572206e6f7220617070726f76656400000000000000000000600082015250565b6000611842601683611723565b915061184d8261180c565b602082019050919050565b6000602082019050818103600083015261187181611835565b9050919050565b7f6d696e7420746f207a65726f2061646472657373000000000000000000000000600082015250565b60006118ae601483611723565b91506118b982611878565b602082019050919050565b600060208201905081810360008301526118dd816118a1565b9050919050565b7f746f6b656e20616c7265616479206d696e746564000000000000000000000000600082015250565b600061191a601483611723565b9150611925826118e4565b602082019050919050565b600060208201905081810360008301526119498161190d565b9050919050565b7f4e487b7100000000000000000000000000000000000000000000000000000000600052601160045260246000fd5b600061198a826112d9565b9150611995836112d9565b9250827fffffffffffffffffffffffffffffffffffffffffffffffffffffffffffffffff038211156119ca576119c9611950565b5b828201905092915050565b60006119e0826112d9565b91506119eb836112d9565b9250828210156119fe576119fd611950565b5b828203905092915050565b7f6f776e6572203d207a65726f2061646472657373000000000000000000000000600082015250565b6000611a3f601483611723565b9150611a4a82611a09565b602082019050919050565b60006020820190508181036000830152611a6e81611a32565b9050919050565b7f6e6f74206f776e65720000000000000000000000000000000000000000000000600082015250565b6000611aab600983611723565b9150611ab682611a75565b602082019050919050565b60006020820190508181036000830152611ada81611a9e565b9050919050565b7f7472616e7366657220746f20746865207a65726f206164647265737300000000600082015250565b6000611b17601c83611723565b9150611b2282611ae1565b602082019050919050565b60006020820190508181036000830152611b4681611b0a565b9050919050565b7f6e6f742045524337323152656365697665720000000000000000000000000000600082015250565b6000611b83601283611723565b9150611b8e82611b4d565b602082019050919050565b60006020820190508181036000830152611bb281611b76565b9050919050565b600081519050919050565b600082825260208201905092915050565b60005b83811015611bf3578082015181840152602081019050611bd8565b83811115611c02576000848401525b50505050565b6000611c1382611bb9565b611c1d8185611bc4565b9350611c2d818560208601611bd5565b611c3681611524565b840191505092915050565b6000608082019050611c56600083018761136e565b611c63602083018661136e565b611c706040830185611484565b8181036060830152611c828184611c08565b905095945050505050565b600081519050611c9c8161124a565b92915050565b600060208284031215611cb857611cb7611214565b5b6000611cc684828501611c8d565b9150509291505056fea264697066735822122085d8397cfb9cbd193511b4371d9fe4510f1cce4c8615552cb18073855c46f12c64736f6c634300080c0033",
  "immutableReferences": {},
  "source": "// SPDX-License-Identifier: MIT\r\npragma solidity ^0.8.6;\r\n\r\ninterface IERC165 {\r\n    function supportsInterface(bytes4 interfaceID) external view returns (bool);\r\n}\r\n\r\ninterface IERC721 is IERC165 {\r\n    function balanceOf(address owner) external view returns (uint balance);\r\n\r\n    function ownerOf(uint tokenId) external view returns (address owner);\r\n\r\n    function safeTransferFrom(\r\n        address from,\r\n        address to,\r\n        uint tokenId\r\n    ) external;\r\n\r\n    function safeTransferFrom(\r\n        address from,\r\n        address to,\r\n        uint tokenId,\r\n        bytes calldata data\r\n    ) external;\r\n\r\n    function transferFrom(\r\n        address from,\r\n        address to,\r\n        uint tokenId\r\n    ) external;\r\n\r\n    function approve(address to, uint tokenId) external;\r\n\r\n    function getApproved(uint tokenId) external view returns (address operator);\r\n\r\n    function setApprovalForAll(address operator, bool _approved) external;\r\n\r\n    function isApprovedForAll(address owner, address operator)\r\n        external\r\n        view\r\n        returns (bool);\r\n}\r\n\r\ninterface IERC721Receiver {\r\n    function onERC721Received(\r\n        address operator,\r\n        address from,\r\n        uint tokenId,\r\n        bytes calldata data\r\n    ) external returns (bytes4);\r\n}\r\n\r\ncontract ERC721 is IERC721 {\r\n    using Address for address;\r\n\r\n    event Transfer(address indexed from, address indexed to, uint indexed tokenId);\r\n    event Approval(\r\n        address indexed owner,\r\n        address indexed approved,\r\n        uint indexed tokenId\r\n    );\r\n    event ApprovalForAll(\r\n        address indexed owner,\r\n        address indexed operator,\r\n        bool approved\r\n    );\r\n\r\n    // Mapping from token ID to owner address\r\n    mapping(uint => address) private _owners;\r\n\r\n    // Mapping owner address to token count\r\n    mapping(address => uint) private _balances;\r\n\r\n    // Mapping from token ID to approved address\r\n    mapping(uint => address) private _tokenApprovals;\r\n\r\n    // Mapping from owner to operator approvals\r\n    mapping(address => mapping(address => bool)) private _operatorApprovals;\r\n\r\n    function supportsInterface(bytes4 interfaceId)\r\n        external\r\n        pure\r\n        override\r\n        returns (bool)\r\n    {\r\n        return\r\n            interfaceId == type(IERC721).interfaceId ||\r\n            interfaceId == type(IERC165).interfaceId;\r\n    }\r\n\r\n    function balanceOf(address owner) external view override returns (uint) {\r\n        require(owner != address(0), \"owner = zero address\");\r\n        return _balances[owner];\r\n    }\r\n\r\n    function ownerOf(uint tokenId) public view override returns (address owner) {\r\n        owner = _owners[tokenId];\r\n        require(owner != address(0), \"token doesn't exist\");\r\n    }\r\n\r\n    function isApprovedForAll(address owner, address operator)\r\n        external\r\n        view\r\n        override\r\n        returns (bool)\r\n    {\r\n        return _operatorApprovals[owner][operator];\r\n    }\r\n\r\n    function setApprovalForAll(address operator, bool approved) external override {\r\n        _operatorApprovals[msg.sender][operator] = approved;\r\n        emit ApprovalForAll(msg.sender, operator, approved);\r\n    }\r\n\r\n    function getApproved(uint tokenId) external view override returns (address) {\r\n        require(_owners[tokenId] != address(0), \"token doesn't exist\");\r\n        return _tokenApprovals[tokenId];\r\n    }\r\n\r\n    function _approve(\r\n        address owner,\r\n        address to,\r\n        uint tokenId\r\n    ) private {\r\n        _tokenApprovals[tokenId] = to;\r\n        emit Approval(owner, to, tokenId);\r\n    }\r\n\r\n    function approve(address to, uint tokenId) external override {\r\n        address owner = _owners[tokenId];\r\n        require(\r\n            msg.sender == owner || _operatorApprovals[owner][msg.sender],\r\n            \"not owner nor approved for all\"\r\n        );\r\n        _approve(owner, to, tokenId);\r\n    }\r\n\r\n    function _isApprovedOrOwner(\r\n        address owner,\r\n        address spender,\r\n        uint tokenId\r\n    ) private view returns (bool) {\r\n        return (spender == owner ||\r\n            _tokenApprovals[tokenId] == spender ||\r\n            _operatorApprovals[owner][spender]);\r\n    }\r\n\r\n    function _transfer(\r\n        address owner,\r\n        address from,\r\n        address to,\r\n        uint tokenId\r\n    ) private {\r\n        require(from == owner, \"not owner\");\r\n        require(to != address(0), \"transfer to the zero address\");\r\n\r\n        _approve(owner, address(0), tokenId);\r\n\r\n        _balances[from] -= 1;\r\n        _balances[to] += 1;\r\n        _owners[tokenId] = to;\r\n\r\n        emit Transfer(from, to, tokenId);\r\n    }\r\n\r\n    function transferFrom(\r\n        address from,\r\n        address to,\r\n        uint tokenId\r\n    ) external override {\r\n        address owner = ownerOf(tokenId);\r\n        require(\r\n            _isApprovedOrOwner(owner, msg.sender, tokenId),\r\n            \"not owner nor approved\"\r\n        );\r\n        _transfer(owner, from, to, tokenId);\r\n    }\r\n\r\n    function _checkOnERC721Received(\r\n        address from,\r\n        address to,\r\n        uint tokenId,\r\n        bytes memory _data\r\n    ) private returns (bool) {\r\n        if (to.isContract()) {\r\n            return\r\n                IERC721Receiver(to).onERC721Received(\r\n                    msg.sender,\r\n                    from,\r\n                    tokenId,\r\n                    _data\r\n                ) == IERC721Receiver.onERC721Received.selector;\r\n        } else {\r\n            return true;\r\n        }\r\n    }\r\n\r\n    function _safeTransfer(\r\n        address owner,\r\n        address from,\r\n        address to,\r\n        uint tokenId,\r\n        bytes memory _data\r\n    ) private {\r\n        _transfer(owner, from, to, tokenId);\r\n        require(_checkOnERC721Received(from, to, tokenId, _data), \"not ERC721Receiver\");\r\n    }\r\n\r\n    function safeTransferFrom(\r\n        address from,\r\n        address to,\r\n        uint tokenId,\r\n        bytes memory _data\r\n    ) public override {\r\n        address owner = ownerOf(tokenId);\r\n        require(\r\n            _isApprovedOrOwner(owner, msg.sender, tokenId),\r\n            \"not owner nor approved\"\r\n        );\r\n        _safeTransfer(owner, from, to, tokenId, _data);\r\n    }\r\n\r\n    function safeTransferFrom(\r\n        address from,\r\n        address to,\r\n        uint tokenId\r\n    ) external override {\r\n        safeTransferFrom(from, to, tokenId, \"\");\r\n    }\r\n\r\n    function mint(address to, uint tokenId) external {\r\n        require(to != address(0), \"mint to zero address\");\r\n        require(_owners[tokenId] == address(0), \"token already minted\");\r\n\r\n        _balances[to] += 1;\r\n        _owners[tokenId] = to;\r\n\r\n        emit Transfer(address(0), to, tokenId);\r\n    }\r\n\r\n    function burn(uint tokenId) external {\r\n        address owner = ownerOf(tokenId);\r\n\r\n        _approve(owner, address(0), tokenId);\r\n\r\n        _balances[owner] -= 1;\r\n        delete _owners[tokenId];\r\n\r\n        emit Transfer(owner, address(0), tokenId);\r\n    }\r\n}\r\n\r\nlibrary Address {\r\n    function isContract(address account) internal view returns (bool) {\r\n        uint size;\r\n        assembly {\r\n            size := extcodesize(account)\r\n        }\r\n        return size > 0;\r\n    }\r\n}\r\n",
  "sourcePath": "C:\\Users\\Dell\\Desktop\\DutchAuction\\contracts\\ERC721.sol",
  "compiler": {
    "name": "solc",
    "version": "0.8.12+commit.f00d7308.Emscripten.clang"
  },
  "schemaVersion": "3.4.6",
  "updatedAt": "2022-03-22T12:36:01.271Z",
  "devdoc": {
    "kind": "dev",
    "methods": {},
    "version": 1
  },
  "userdoc": {
    "kind": "user",
    "methods": {},
    "version": 1
  }
}